:020000040800F2
:10000000780C0020450100082D040008CD030008ED
:1000100029040008410200083F0B0008000000000E
:100020000000000000000000000000005701000870
:1000300045020008000000007F010008B107000829
:100040005F0100085F0100085F0100085F01000810
:100050005F0100085F0100085F0100085F01000800
:100060005F0100085F0100085F0100085F010008F0
:100070005F0100085F0100085F0100085F010008E0
:100080005F0100085F0100085F0100085F010008D0
:100090005F0100085F0100085F0100085F010008C0
:1000A0005F0100085F0100085F0100085F010008B0
:1000B0005F010008B10800085F0100085F01000847
:1000C0005F0100085F0100085F0100085F01000890
:1000D0005F0100081D0900085F0100085F010008BA
:1000E0005F0100085F0100085F0100085F01000870
:1000F0005F0100085F0100085F0100085F01000860
:100100005F0100085F0100085F0100085F0100084F
:100110005F0100085F0100085F0100085F0100083F
:100120005F0100085F0100085F0100085F0100082F
:10013000DFF80CD000F072F800480047390E0008D4
:10014000780C00200648804706480047FEE7FEE797
:10015000FEE7FEE7FEE7FEE7FEE7FEE7FEE7FEE777
:10016000510800083101000872B6704762B6704746
:1001700072B64FF0000484F3098862B6704772B615
:10018000EFF3098030B1A0F1200080E8F00F0949B9
:1001900009680860074808490A680260106890E822
:1001A000F00F00F1200080F309884EF0040E62B6D3
:1001B00070470000040000200800002040EA01030E
:1001C0009B0703D009E008C9121F08C0042AFAD20D
:1001D00003E011F8013B00F8013B521EF9D27047D1
:1001E000421C10F8011B0029FBD1801A704730B562
:1001F0000B46014600202022012409E021FA02F5E5
:100200009D4205D303FA02F5491B04FA02F528447E
:10021000151EA2F10102F1DC30BD0000064C074DB5
:1002200006E0E06840F0010394E8070098471034C6
:10023000AC42F6D3FFF780FFC4100008E4100008BA
:1002400000BFFEE770472DE9F04102460025002679
:10025000002000230024002791F803C00CF00F05B4
:1002600091F803C00CF0100CBCF1000F03D091F812
:1002700002C04CEA050591F800C0BCF1000F31D076
:10028000146800202BE04FF0010C0CFA00F3B1F8D9
:1002900000C00CEA03069E4220D183004FF00F0CF1
:1002A0000CFA03F7BC4305FA03FC4CEA040491F88A
:1002B00003C0BCF1280F06D14FF0010C0CFA00FC72
:1002C000C2F814C00AE091F803C0BCF1480F05D190
:1002D0004FF0010C0CFA00FCC2F810C0401C0828BA
:1002E000D1D31460B1F800C0BCF1FF0F34DD546805
:1002F00000202EE000F1080C4FF0010808FA0CF382
:10030000B1F800C00CEA03069E4221D183004FF0F1
:100310000F0C0CFA03F7BC4305FA03FC4CEA040487
:1003200091F803C0BCF1280F05D100F1080C08FAC0
:100330000CF8C2F8148091F803C0BCF1480F07D143
:1003400000F1080C4FF0010808FA0CF8C2F8108010
:10035000401C0828CED35460BDE8F081016170478D
:1003600010B500210B4B186800BF0EE00A4B53F884
:1003700021305B69012B07D1074B53F8212093698A
:100380008469A34200DD1046491C044B1B68994256
:10039000ECDB10BD00000020580600207C0000208F
:1003A00002460020002107E0064B53F821305B692C
:1003B000934200D1401C491C034B1B689942F3DB5C
:1003C00070470000580600207C00002000BFFEE7B8
:1003D00008B50121102000F0C5F84FF40050ADF829
:1003E000000010208DF8030003208DF802006946FC
:1003F0000448FFF728FF4FF400510248FFF7AEFF13
:1004000008BD0000001001400BE00648006808B974
:10041000012000E00020034908604FF4FA7000F06A
:100420003FF8F2E7B401224200BFFEE77047000048
:1004300070B5002100230F22C47804B3154C246842
:1004400004F4E064C4F5E064210AC1F10403CA4085
:10045000447804FA03F184781440214309010E4CD6
:100460000678A155047804F01F050124AC400578F6
:100470006D11AD0005F1E025C5F8004109E00478F3
:1004800004F01F050124AC40044D0678761145F8B0
:10049000264070BD0CED00E000E400E080E100E0EB
:1004A00010B504460320084909684861601E0649E2
:1004B0000968C86100F00CF800BF03480068C06913
:1004C0000028FAD110BD00000400002000BFFEE7A4
:1004D00010B5FFF745FF04460A48006884420FD074
:1004E00008480068406918B9012006490968486150
:1004F00005480460002004490968486100F0ACF830
:1005000010BD0000040000200800002000F012F8D8
:1005100000F084F9FFF724FF05490860002009680E
:100520004861FFF725FE00F097F800BFFEE70000E6
:10053000080000200148FF210170704722ED00E013
:1005400006E004A000F0FEFA4FF47A70FFF7A8FF6F
:10055000F7E700007072696E74207461736B0D0AA6
:100560000000000029B1064A92690243044B9A61D7
:1005700004E0034A92698243014B9A61704700008C
:100580000010024030B500210022002400232D4D30
:100590006D6805F00C0121B1042905D0082923D18B
:1005A00005E0294D056022E0274D05601FE0254D3F
:1005B0006D6805F47012234D6D6805F480340225D2
:1005C00005EB92421CB9214D554305600BE01D4DD2
:1005D0006D6805F400351DB11C4D5543056002E002
:1005E000194D5543056002E0174D056000BF00BF7F
:1005F000144D6D6805F0F0010909154D6B5C056837
:10060000DD4045600F4D6D6805F4E061090A104D4D
:100610006B5C4568DD4085600A4D6D6805F460518E
:10062000C90A0B4D6B5C4568DD40C560054D6D68C2
:1006300005F44041890B074D6B5CC568B5FBF3F5CC
:10064000056130BD0010024000127A0000093D0033
:1006500052000020620000204FF0805001490968DC
:10066000086070478400002010B500F001F810BD4C
:100670000CB50020019000903348006840F48030B1
:100680003149086000BF3048006800F40030009035
:100690000198401C0190009818B90198B0F5A06F1E
:1006A000F1D12948006800F4003010B10120009019
:1006B00001E0002000900098012843D12348006801
:1006C00040F01000214908600846006820F003004F
:1006D00008600846006840F0020008601A48406858
:1006E000194948600846406848600846406840F438
:1006F000806048600846406820F47C1048600846E6
:10070000406840F4E81048600846006840F0807097
:10071000086000BF0C48006800F000700028F9D0A5
:100720000948406820F003000749486008464068CF
:1007300040F00200486000BF0348406800F00C0031
:100740000828F9D10CBD0000001002400020024032
:1007500070B50546002411E004EB8401094A02EB60
:100760008101C87A00F0EAFA38B104EB8400054A46
:1007700002EB8000016928468847641C032CEBDBF0
:1007800070BD00000C000020042808D14FF0E021CB
:10079000096941F004014FF0E022116107E04FF0D8
:1007A000E021096921F004014FF0E0221161704756
:1007B00010B5002400F0BCFB0320FFF7F1FD00B3EF
:1007C00000BF1AE0134850F824004069032813D1F1
:1007D000104850F82400C06928B901200D4951F88B
:1007E0002410486108E00B4850F82400C069401EFE
:1007F000084951F82410C861641C07480068844205
:10080000E0DB0120FFF7CCFD08B1FFF761FE00F04F
:100810009FFB10BD580600207C00002010B50A4C3C
:10082000002020700420FFF7AFFF084800684FF455
:100830007A71B0FBF1F0401E4FF0E02148610020DA
:1008400088610720086110BD23ED00E068000020EA
:1008500010B51348006840F00100114908600846CF
:100860004068104908400E494860084600680E4933
:1008700008400B4908600846006820F480200860A2
:100880000846406820F4FE0048604FF41F0088606E
:10089000FFF7EAFE4FF000600449086010BD000059
:1008A000001002400000FFF8FFFFF6FE08ED00E038
:1008B00010B501210D4800F020F8A8B101210B4826
:1008C00000F018F80A480068401C0949086008460A
:1008D00000686FF00041884202D10020044908609E
:1008E00003480068FFF734FF10BD0000000400401B
:1008F00048000020CA430282704730B502460020FB
:1009000000230024158A05EA0103958905EA0104FC
:1009100013B10CB1012000E0002030BD10B540F251
:1009200025511D4800F04AF810B31B4800F002F9A9
:10093000C4B21A48008800F40040C8B917480088BB
:1009400000F4804060B10A2C03D0002013490880D5
:1009500020E01248008840F400401049088019E067
:100960000D2C06D10D48008840F480400B490880CA
:1009700010E00A480088C0F30D0009490C540748EC
:100980000088401C0549088008460088C72801DD0A
:100990000020088010BD00000038014050000020F9
:1009A0009005002021B1828942F40052828104E046
:1009B00082894DF6FF731A408281704770B50246F6
:1009C000002400230025002040F66A16B14200D121
:1009D00000BFC1F3421501F01F03012606FA03F31D
:1009E000012D02D19689334006E0022D02D1168AEC
:1009F000334001E0968A33400C12012606FA04F4D3
:100A00001688344013B10CB1012000E0002070BD05
:100A1000F0B50346002400260025002040F66A17A2
:100A2000B94200D100BF1846C1F3421401F01F06BD
:100A3000012707FA06F5012C01D10C3004E0022C45
:100A400001D1103000E014301AB107682F4307605D
:100A500002E00768AF430760F0BD00002DE9F047F2
:100A600086B005460E460024A24600BFA1460027D8
:100A7000B08900B100BF2F462C8A4CF6FF700440AD
:100A8000F08804432C82AC894EF6F3100440B08801
:100A900031890843718908430443AC81AC8A4FF61D
:100AA000FF400440B0890443AC8201A8FFF76AFD0F
:100AB0001F48874202D1DDF810A001E0DDF80CA04C
:100AC000A88900F4004040B10AEBCA0000EB0A100C
:100AD00031684900B0FBF1F807E00AEBCA0000EB0F
:100AE0000A1031688900B0FBF1F86420B8FBF0F01F
:100AF00004012009642101FB1089A88900F4004049
:100B000040B1322000EBC900B0FBF1F000F007006B
:100B1000044308E0322000EB09106421B0FBF1F03F
:100B200000F00F0004432C8106B0BDE8F087000000
:100B30000038014001468888C0F30800704700BFB4
:100B4000FEE700000FB4054B10B503A9044A029854
:100B500000F018F810BC5DF814FB0000E10D00086F
:100B60004C00002002E008C8121F08C1002AFAD178
:100B700070477047002001E001C1121F002AFBD11D
:100B8000704700002DE9FF4F8BB09A460F4605468F
:100B9000002606E025280BD052460D9990476D1C83
:100BA000761C28780028F5D10FB03046BDE8F08FCC
:100BB0000024A0460122604900E0044315F8013FEB
:100BC000203B02FA03F00842F7D128782E2817D1EB
:100BD00015F8010F44F004042A280ED06FF02F02FC
:100BE0002878A0F1300109290AD808EB880102EB26
:100BF000410100EB01086D1CF2E757F8048B6D1CF6
:100C0000287869283ED006DC0028CDD063280BD098
:100C1000642804D136E0732810D075284BD0524692
:100C20000D999047761C85E017F8040B8DF80000AD
:100C300000208DF80100E946012003E057F8049BED
:100C40004FF0FF3061074FF0000401D40AE0641C4C
:100C500044450DDA8442FADB19F804100029F6D174
:100C600006E0641C8442FCDB19F804100029F8D16A
:100C7000264404E019F8010B52460D999047641E72
:100C8000F8D257E001CF4FF00A0B002802DA4042B9
:100C90002D2102E0210504D52B218DF824100121FE
:100CA00003E0E10705D02021F7E70DF120090891C5
:100CB0000CE00021F9E701CF4FF00A0BF9E75946A4
:100CC000FFF795FA01F1300209F8012D0028F6D15D
:100CD000ADEB090000F1200B600701D44FF00108D3
:100CE000D84502DDA8EB0B0000E000208046002480
:100CF00006E009A85246005D0D999047641C761CD9
:100D000008988442F5DB04E0302052460D99904764
:100D1000761CB8F10001A8F10108F5DC05E019F82E
:100D2000010B52460D999047761CBBF10001ABF1C7
:100D3000010BF4DC6D1C34E7092801000146012990
:100D400000D170470020FCE72DE9F04781460D46B1
:100D500016461F46089C2846FFF742FA804600F0D8
:100D60004DF818480068082802D117A0FFF7EAFEDE
:100D700024B3202000F0A6F820602068F0B13946A6
:100D8000484600F01BF92168086042462168081DAA
:100D90002946FFF713FA012021684861206886611F
:100DA00000202168C8610D49064A2068126841F890
:100DB000220004480068401C0249086000F020F846
:100DC000BDE8F0877C0000204372656174652054A3
:100DD00061736B204661696C0D0A000058060020A3
:100DE00000BF054A128802F04002002AF9D0C2B2C0
:100DF000014B1B1D1A8070470038014072B67047C6
:100E000062B670470A49497B491C094A5173114629
:100E1000497B127B91420AD10649096809B901212F
:100E200000E00021034A11600021014A517370471C
:100E30000C000020B40122420EB5FFF7C9FA4FF4AE
:100E4000E13000F0EFF80E480E4B00220EA10090AA
:100E50001148FFF779FF02A8104B022210A1009061
:100E60001248FFF771FF01A8114B012211A1009058
:100E70001348FFF769FFFFF749FB00BFFEE70000DB
:100E8000000000208C0500204F535F49444C455F13
:100E90005461736B00000000CD0400088C02002038
:100EA0004C65645F5461736B000000000904000826
:100EB0008C0400205072696E745F5461736B000083
:100EC00041050008F0B50B30154D20F00701002456
:100ED000144A0FE003688B420BD38B4205D95E1A8C
:100EE00043184768C3E9006700E04368136002C025
:100EF00004E0021D10680028ECD12046002802D131
:100F0000286808B10020F0BD064A07481060074A6B
:100F1000121A22F00702C0E9002401202860D7E756
:100F20008C000020880000207C060020780800202B
:100F300010B5FFF71BF905480068401C20B10348B5
:100F40000068401C0149086010BD000080000020BE
:100F500010B508480068002805DD06480068401EF6
:100F60000449086004E00348006808B9FFF7FCF88A
:100F700010BD00008000002010B504460A4890F81B
:100F80002100401CC1B2084880F8211090F82110BF
:100F900090F82000814206D104A0FFF7D3FD002184
:100FA000014880F8211010BD0C0000207072696E9D
:100FB000745F7461736B0D0A0000000010B5024687
:100FC00008464FF080730360031F18461A606FF0E5
:100FD0000104031F18461C60343810BD70B5044668
:100FE0000C4890F83500401CC1B20A4880F8351012
:100FF00090F8351090F8340081420AD10A2094FB11
:10100000F0F5294604A0FFF79DFD0021014880F876
:10101000351070BD0C00002074696D653A256420A0
:10102000730D0A0010B586B00446012144F2040095
:10103000FFF798FA4FF40070ADF8140003208DF814
:10104000160018208DF8170005A91C48FFF7FBF8BB
:101050004FF48060ADF8140004208DF8170005A946
:101060001648FFF7F0F825208DF8000003208DF8D2
:1010700001008DF8020001208DF803006846FFF79B
:10108000D7F901940020ADF80800ADF80A00ADF8DA
:101090000C00ADF810000C20ADF80E0001A90848B6
:1010A000FFF7DCFC012240F225510548FFF7B0FCB8
:1010B00001210348FFF776FC06B010BD000801408F
:1010C00000380140E41000080000002090000000FB
:1010D000640B00087411000890000020E80B000069
:1010E000740B000800000000000000000000000079
:1010F0006C65645F323030000000000102000000C7
:10110000050E00087072696E745F353030000101A1
:1011100005000000790F0008636F756E7400000011
:10112000000002010A000000DD0F000800000000BE
:1011300000000000000000000000010203040102A2
:1011400003040607080902040608000000A24A0476
:101150000000000000000000010203040607080967
:10116000000000000000000004ED00E000000000AE
:04117000000000007B
:0400000508000131BD
:00000001FF
